{
  "abi": [
    {
      "inputs": [],
      "stateMutability": "nonpayable",
      "type": "constructor"
    },
    {
      "inputs": [
        {
          "internalType": "string",
          "name": "title",
          "type": "string"
        },
        {
          "internalType": "string",
          "name": "description",
          "type": "string"
        },
        {
          "internalType": "address[]",
          "name": "authorized",
          "type": "address[]"
        },
        {
          "internalType": "uint256",
          "name": "endTimestamp",
          "type": "uint256"
        }
      ],
      "name": "createPoll",
      "outputs": [],
      "stateMutability": "nonpayable",
      "type": "function"
    },
    {
      "inputs": [
        {
          "internalType": "uint256",
          "name": "_idx",
          "type": "uint256"
        }
      ],
      "name": "deletePoll",
      "outputs": [],
      "stateMutability": "nonpayable",
      "type": "function"
    },
    {
      "inputs": [
        {
          "internalType": "uint256",
          "name": "_idx",
          "type": "uint256"
        }
      ],
      "name": "getPoll",
      "outputs": [
        {
          "components": [
            {
              "internalType": "string",
              "name": "title",
              "type": "string"
            },
            {
              "internalType": "string",
              "name": "description",
              "type": "string"
            },
            {
              "internalType": "uint256",
              "name": "nb_for",
              "type": "uint256"
            },
            {
              "internalType": "uint256",
              "name": "nb_against",
              "type": "uint256"
            },
            {
              "internalType": "address",
              "name": "owner",
              "type": "address"
            },
            {
              "internalType": "uint256",
              "name": "startTimestamp",
              "type": "uint256"
            },
            {
              "internalType": "uint256",
              "name": "endTimestamp",
              "type": "uint256"
            },
            {
              "internalType": "bool",
              "name": "isActive",
              "type": "bool"
            }
          ],
          "internalType": "struct VotePoll",
          "name": "",
          "type": "tuple"
        }
      ],
      "stateMutability": "view",
      "type": "function"
    },
    {
      "inputs": [],
      "name": "getPolls",
      "outputs": [
        {
          "components": [
            {
              "internalType": "string",
              "name": "title",
              "type": "string"
            },
            {
              "internalType": "string",
              "name": "description",
              "type": "string"
            },
            {
              "internalType": "uint256",
              "name": "nb_for",
              "type": "uint256"
            },
            {
              "internalType": "uint256",
              "name": "nb_against",
              "type": "uint256"
            },
            {
              "internalType": "address",
              "name": "owner",
              "type": "address"
            },
            {
              "internalType": "uint256",
              "name": "startTimestamp",
              "type": "uint256"
            },
            {
              "internalType": "uint256",
              "name": "endTimestamp",
              "type": "uint256"
            },
            {
              "internalType": "bool",
              "name": "isActive",
              "type": "bool"
            }
          ],
          "internalType": "struct VotePoll[]",
          "name": "",
          "type": "tuple[]"
        }
      ],
      "stateMutability": "view",
      "type": "function"
    },
    {
      "inputs": [
        {
          "internalType": "uint256",
          "name": "_idx",
          "type": "uint256"
        },
        {
          "internalType": "enum VoteChoice",
          "name": "choice",
          "type": "uint8"
        }
      ],
      "name": "votePoll",
      "outputs": [],
      "stateMutability": "nonpayable",
      "type": "function"
    }
  ],
  "bytecode": {
    "object": "0x608060405234801561001057600080fd5b50600380546001600160a01b03191630179055610c9a806100326000396000f3fe608060405234801561001057600080fd5b50600436106100575760003560e01c8063120fe89b1461005c5780631a8cbcaa1461007a5780631f35b51d1461009a57806322d29646146100af5780633ddf8cd5146100c2575b600080fd5b6100646100d5565b604051610071919061083c565b60405180910390f35b61008d61008836600461089e565b6102a9565b60405161007191906108b7565b6100ad6100a836600461089e565b61049e565b005b6100ad6100bd366004610988565b6104ef565b6100ad6100d0366004610a94565b610616565b60606002805480602002602001604051908101604052809291908181526020016000905b828210156102a057838290600052602060002090600802016040518061010001604052908160008201805461012d90610ac8565b80601f016020809104026020016040519081016040528092919081815260200182805461015990610ac8565b80156101a65780601f1061017b576101008083540402835291602001916101a6565b820191906000526020600020905b81548152906001019060200180831161018957829003601f168201915b505050505081526020016001820180546101bf90610ac8565b80601f01602080910402602001604051908101604052809291908181526020018280546101eb90610ac8565b80156102385780601f1061020d57610100808354040283529160200191610238565b820191906000526020600020905b81548152906001019060200180831161021b57829003601f168201915b505050918352505060028201546020808301919091526003830154604083015260048301546001600160a01b0316606083015260058301546080830152600683015460a083015260079092015460ff16151560c09091015290825260019290920191016100f9565b50505050905090565b6102fc6040518061010001604052806060815260200160608152602001600081526020016000815260200160006001600160a01b0316815260200160008152602001600081526020016000151581525090565b6002828154811061030f5761030f610b02565b90600052602060002090600802016040518061010001604052908160008201805461033990610ac8565b80601f016020809104026020016040519081016040528092919081815260200182805461036590610ac8565b80156103b25780601f10610387576101008083540402835291602001916103b2565b820191906000526020600020905b81548152906001019060200180831161039557829003601f168201915b505050505081526020016001820180546103cb90610ac8565b80601f01602080910402602001604051908101604052809291908181526020018280546103f790610ac8565b80156104445780601f1061041957610100808354040283529160200191610444565b820191906000526020600020905b81548152906001019060200180831161042757829003601f168201915b5050509183525050600282015460208201526003820154604082015260048201546001600160a01b0316606082015260058201546080820152600682015460a082015260079091015460ff16151560c09091015292915050565b6003546001600160a01b031633146104b557600080fd5b6000600282815481106104ca576104ca610b02565b60009182526020909120600890910201600701805460ff191691151591909117905550565b600254600090815260208181526040909120835161050f928501906106f9565b506040805161010081018252858152602081018590526000918101829052606081018290523360808201524260a082015260c08101839052600160e08201819052600280549182018155909252805190916008027f405787fa12a823e0f2b7631cc41b3ba8828b3321ca811111fa75cd3aa3bb5ace019081906105929082610b67565b50602082015160018201906105a79082610b67565b50604082015160028201556060820151600382015560808201516004820180546001600160a01b0319166001600160a01b0390921691909117905560a0820151600582015560c0820151600682015560e0909101516007909101805460ff191691151591909117905550505050565b600081600181111561062a5761062a610c27565b0361066a576002828154811061064257610642610b02565b60009182526020822060026008909202010180549161066083610c3d565b91905055506106ba565b600181600181111561067e5761067e610c27565b036106ba576002828154811061069657610696610b02565b6000918252602082206003600890920201018054916106b483610c3d565b91905055505b60008281526001602081815260408084203385529091529091208054839260ff199091169083818111156106f0576106f0610c27565b02179055505050565b82805482825590600052602060002090810192821561074e579160200282015b8281111561074e57825182546001600160a01b0319166001600160a01b03909116178255602090920191600190910190610719565b5061075a92915061075e565b5090565b5b8082111561075a576000815560010161075f565b6000815180845260005b818110156107995760208185018101518683018201520161077d565b506000602082860101526020601f19601f83011685010191505092915050565b600061010082518185526107cf82860182610773565b915050602083015184820360208601526107e98282610773565b915050604083015160408501526060830151606085015260018060a01b03608084015116608085015260a083015160a085015260c083015160c085015260e0830151151560e08501528091505092915050565b6000602080830181845280855180835260408601915060408160051b870101925083870160005b8281101561089157603f1988860301845261087f8583516107b9565b94509285019290850190600101610863565b5092979650505050505050565b6000602082840312156108b057600080fd5b5035919050565b6020815260006108ca60208301846107b9565b9392505050565b634e487b7160e01b600052604160045260246000fd5b604051601f8201601f1916810167ffffffffffffffff81118282101715610910576109106108d1565b604052919050565b600082601f83011261092957600080fd5b813567ffffffffffffffff811115610943576109436108d1565b610956601f8201601f19166020016108e7565b81815284602083860101111561096b57600080fd5b816020850160208301376000918101602001919091529392505050565b6000806000806080858703121561099e57600080fd5b843567ffffffffffffffff808211156109b657600080fd5b6109c288838901610918565b95506020915081870135818111156109d957600080fd5b6109e589828a01610918565b9550506040870135818111156109fa57600080fd5b8701601f81018913610a0b57600080fd5b803582811115610a1d57610a1d6108d1565b8060051b9250610a2e8484016108e7565b818152928201840192848101908b851115610a4857600080fd5b928501925b84841015610a7f57833592506001600160a01b0383168314610a6f5760008081fd5b8282529285019290850190610a4d565b989b979a509798606001359750505050505050565b60008060408385031215610aa757600080fd5b82359150602083013560028110610abd57600080fd5b809150509250929050565b600181811c90821680610adc57607f821691505b602082108103610afc57634e487b7160e01b600052602260045260246000fd5b50919050565b634e487b7160e01b600052603260045260246000fd5b601f821115610b6257600081815260208120601f850160051c81016020861015610b3f5750805b601f850160051c820191505b81811015610b5e57828155600101610b4b565b5050505b505050565b815167ffffffffffffffff811115610b8157610b816108d1565b610b9581610b8f8454610ac8565b84610b18565b602080601f831160018114610bca5760008415610bb25750858301515b600019600386901b1c1916600185901b178555610b5e565b600085815260208120601f198616915b82811015610bf957888601518255948401946001909101908401610bda565b5085821015610c175787850151600019600388901b60f8161c191681555b5050505050600190811b01905550565b634e487b7160e01b600052602160045260246000fd5b600060018201610c5d57634e487b7160e01b600052601160045260246000fd5b506001019056fea26469706673582212206e0425598a6db1ee68d35e2d9f6db570adb4e1e8ed910fdafcdd96a76270663164736f6c63430008120033",
    "linkReferences": {}
  },
  "methodIdentifiers": {
    "createPoll(string,string,address[],uint256)": "22d29646",
    "deletePoll(uint256)": "1f35b51d",
    "getPoll(uint256)": "1a8cbcaa",
    "getPolls()": "120fe89b",
    "votePoll(uint256,uint8)": "3ddf8cd5"
  },
  "id": 16
}